:0400000007EF00F016
:0A0008007B820BED08F0B4EF0CF062
:10100000003738392F3435362A3132332D23303DED
:051010002B2569000022
:101016000600F2A811EF08F013EF08F01CEF08F035
:10102600F2A218EF08F01AEF08F01CEF08F0ACEC8B
:101036000DF0F0A621EF08F023EF08F02CEF08F0F2
:10104600F0A028EF08F02AEF08F02CEF08F0AAEC41
:101056000DF0F0A831EF08F033EF08F03CEF08F0A0
:10106600F0A238EF08F03AEF08F03CEF08F0A8ECF1
:101076000DF0F2A641EF08F043EF08F05EEF08F03E
:10108600F2A048EF08F04AEF08F05EEF08F081A8FA
:101096004FEF08F051EF08F05EEF08F06104D8A4B6
:1010A60057EF08F059EF08F05EEF08F0000E616E9A
:1010B600000E7CEC0DF0F2A663EF08F065EF08F089
:1010C60080EF08F0F2A06AEF08F06CEF08F080EF0E
:1010D60008F081B871EF08F073EF08F080EF08F0C0
:1010E6006150D8A479EF08F07BEF08F080EF08F0A4
:1010F600010E616E010E7CEC0DF0F2A685EF08F094
:1011060087EF08F0A2EF08F0F2A08CEF08F08EEF60
:1011160008F0A2EF08F081AA93EF08F095EF08F027
:10112600A2EF08F06004D8A49BEF08F09DEF08F04A
:10113600A2EF08F0000E606E000E6FEC0DF0F2A646
:10114600A7EF08F0A9EF08F0C4EF08F0F2A0AEEFA1
:1011560008F0B0EF08F0C4EF08F081BAB5EF08F078
:10116600B7EF08F0C4EF08F06050D8A4BDEF08F060
:10117600BFEF08F0C4EF08F0010E606E010E6FECD1
:101186000DF0F2A6C9EF08F0CBEF08F0E6EF08F095
:10119600F2A0D0EF08F0D2EF08F0E6EF08F081AC4D
:1011A600D7EF08F0D9EF08F0E6EF08F05F04D8A40F
:1011B600DFEF08F0E1EF08F0E6EF08F0000E5F6EF3
:1011C600000E62EC0DF0F2A6EBEF08F0EDEF08F082
:1011D60008EF09F0F2A0F2EF08F0F4EF08F008EFDC
:1011E60009F081BCF9EF08F0FBEF08F008EF09F011
:1011F6005F50D8A401EF09F003EF09F008EF09F0FA
:10120600010E5F6E010E62EC0DF0F2A60DEF09F015
:101216000FEF09F02AEF09F0F2A014EF09F016EF2C
:1012260009F02AEF09F081AE1BEF09F01DEF09F076
:101236002AEF09F05E04D8A423EF09F025EF09F0A0
:101246002AEF09F0000E5E6E000E55EC0DF0F2A6C8
:101256002FEF09F031EF09F04CEF09F0F2A036EF6D
:1012660009F038EF09F04CEF09F081BE3DEF09F0C7
:101276003FEF09F04CEF09F05E50D8A445EF09F0B6
:1012860047EF09F04CEF09F0010E5E6E010E55ECCA
:101296000DF09DAC51EF09F053EF09F05CEF09F04A
:1012A6009EAC58EF09F05AEF09F05CEF09F0B4EC88
:1012B6000DF0F2AA61EF09F063EF09F06CEF09F0A7
:1012C600F2A468EF09F06AEF09F06CEF09F095EC0B
:1012D6000DF09DA071EF09F073EF09F07CEF09F0B6
:1012E6009EA078EF09F07AEF09F07CEF09F08FEC19
:1012F6000DF09DA281EF09F083EF09F08CEF09F064
:101306009EA288EF09F08AEF09F08CEF09F0A0ECB5
:101316000DF0A0A291EF09F093EF09F09CEF09F010
:10132600A1A298EF09F09AEF09F09CEF09F089EC79
:101336000DF09DA8A1EF09F0A3EF09F0ACEF09F0BD
:101346009EA8A8EF09F0AAEF09F0ACEF09F0AEEC01
:101356000DF09DAAB1EF09F0B3EF09F0BCEF09F06B
:101366009EAAB8EF09F0BAEF09F0BCEF09F0B8ECA5
:101376000DF09DA6C1EF09F0C3EF09F0CCEF09F01F
:101386009EA6C8EF09F0CAEF09F0CCEF09F0A4EC6D
:101396000DF0A0A6D1EF09F0D3EF09F0DCEF09F0CC
:1013A600A1A6D8EF09F0DAEF09F0DCEF09F0A6EC18
:1013B6000DF09DA6E1EF09F0E3EF09F0ECEF09F07F
:1013C6009EA6E8EF09F0EAEF09F0ECEF09F0B7ECBA
:1013D6000DF09DA4F1EF09F0F3EF09F0FCEF09F031
:1013E6009EA4F8EF09F0FAEF09F0FCEF09F0B2EC71
:1013F6000DF0A0A001EF0AF003EF0AF00CEF0AF0DF
:10140600A1A008EF0AF00AEF0AF00CEF0AF0B0EC20
:101416000DF07B92110075507610D8A415EF0AF0E6
:1014260017EF0AF019EF0AF0B7EF0AF0C69A75C07F
:10143600D9FF76C0DAFFDF50776EC6507718F00B0B
:101446007718C66E75C0D9FF76C0DAFFDF50D8B4FC
:101456002FEF0AF031EF0AF057EF0AF075C0D9FF07
:1014660076C0DAFFDE04D8B43BEF0AF03DEF0AF0AF
:1014760057EF0AF075C0D9FF76C0DAFF020EDE1804
:10148600D8B448EF0AF04AEF0AF057EF0AF075C0F1
:10149600D9FF76C0DAFF030EDE18D8A455EF0AF09E
:1014A60057EF0AF05FEF0AF075C06EF076C06FF086
:1014B60014EC0DF07FEF0AF075C0D9FF76C0DAFFA5
:1014C600040EDE18D8B46AEF0AF06CEF0AF079EF72
:1014D6000AF075C0D9FF76C0DAFF050EDE18D8A46B
:1014E60077EF0AF079EF0AF07FEF0AF075C06EF039
:1014F60076C06FF0E6EC0CF020EE01F07550D926C0
:101506007650DA22DF50030B776E773AC65077189B
:10151600EF0B7718C66E20EE01F07550D92676507F
:10152600DA22DF30E832030B776E77327732C75034
:1015360077187F0B7718C76E20EE01F07550D92605
:101546007650DA22DF38030B776E773A774677469E
:10155600C7507718BF0B7718C76E75C065F076C091
:1015660066F0B6EC0DF0C68A000E1200010E6D6E26
:1015760065506610D8B4C2EF0AF0C4EF0AF0D5EF92
:101586000AF065C0D9FF66C0DAFFDF30E832E8321C
:10159600070B676E070E6764D3EF0AF0D5EF0AF004
:1015A60038EF0BF0000E6D6E59EF0BF065C0D9FFEA
:1015B60066C0DAFFDF30E832E832070B676E010EED
:1015C600686E672AE9EF0AF0D8906836672EE7EF6B
:1015D6000AF06850FF0A696E65C0D9FF66C0DAFF77
:1015E600DF50070B6A6E6A50020D4D0EF324D96E5A
:1015F600000EF420DA6EDECF6BF0DDCF6CF06BC040
:10160600D9FF6CC0DAFF6950DF1659EF0BF065C0E1
:10161600D9FF66C0DAFFDF30E832E832070B676EC3
:10162600010E686E672A1AEF0BF0D8906836672E9F
:1016360018EF0BF065C0D9FF66C0DAFFDF50070B65
:10164600696E6950020D4D0EF324D96E000EF4201A
:10165600DA6EDECF6AF0DDCF6BF06AC0D9FF6BC001
:10166600DAFF6850DF1259EF0BF065C0D9FF66C08C
:10167600DAFFDFBC41EF0BF044EF0BF0010E45EF54
:101686000BF0000E676E686A6850000AD8B44EEF19
:101696000BF0D5EF0AF06750000AD8B4D9EF0AF07C
:1016A600010AD8B40AEF0BF0D5EF0AF06D5012001C
:1016B600010E6E6E65506610D8B464EF0BF066EFDF
:1016C6000BF077EF0BF065C0D9FF66C0DAFFDF30AD
:1016D600E832E832070B686E070E686475EF0BF0A8
:1016E60077EF0BF0DAEF0BF0000E6E6EEFEF0BF00C
:1016F60065C0D9FF66C0DAFFDF30E832E832070B93
:10170600686E010E696E682A8BEF0BF0D890693609
:10171600682E89EF0BF06950FF0A6A6E65C0D9FF23
:1017260066C0DAFFDF50070B6B6E6B50020D430E7F
:10173600F324D96E000EF420DA6EDECF6CF0DDCF26
:101746006DF06CC0D9FF6DC0DAFF6A50DF16EFEF9F
:101756000BF065C0D9FF66C0DAFFDF30E832E83249
:10176600070B686E010E696E682ABCEF0BF0D89005
:101776006936682EBAEF0BF065C0D9FF66C0DAFF8E
:10178600DF50070B6A6E6A50020D430EF324D96EC2
:10179600000EF420DA6EDECF6BF0DDCF6CF06BC09E
:1017A600D9FF6CC0DAFF6950DF12EFEF0BF067501C
:1017B600686E696A6950000AD8B4E4EF0BF077EFF7
:1017C6000BF06850000AD8B47BEF0BF0010AD8B4CE
:1017D600ACEF0BF077EF0BF06E501200410E756E0A
:1017E600000E766E0EEC0AF07A6E620E6F6E000ECA
:1017F600706E7EEC0CF07A6E630E6F6E000E706E7D
:101806007EEC0CF07A6E620E656E000E666E000E51
:10181600676E5BEC0BF07A6E410E656E000E666EBF
:10182600610E676E2DEC0DF07A6E020E796E450E26
:10183600786EAA0EE82EFED7782EFCD7792EFAD728
:10184600410E656E000E666E630E676E2DEC0DF032
:101856007A6E020E796E450E786EAA0EE82EFED7C7
:10186600782EFCD7792EFAD7620E656E000E666E5C
:10187600010E676E5BEC0BF07A6E630E656E000E02
:10188600666E000E676E5BEC0BF07A6E410E656E4F
:10189600000E666E620E676E2DEC0DF07A6E020E0D
:1018A600796E450E786EAA0EE82EFED7782EFCD7F6
:1018B600792EFAD7410E656E000E666E640E676E5F
:1018C6002DEC0DF07A6E630E656E000E666E010EDF
:1018D600676E5BEC0BF07A6E020E796E450E786ED3
:1018E600AA0EE82EFED7782EFCD7792EFAD706EF69
:1018F6000CF007EF00F06F507010D8B485EF0CF0C5
:1019060087EF0CF098EF0CF06FC0D9FF70C0DAFFCC
:10191600DF30E832E832070B716E070E716496EF1E
:101926000CF098EF0CF09CEF0CF0000E726EB2EF1C
:101936000CF06FC065F070C066F0B9EC0AF0726E1C
:101946006FC065F070C066F06FC0D9FF70C0DAFF77
:10195600000EDFBE010E676E5BEC0BF0726E72500E
:101966001200360EF66E1B0EF76E000EF86E00EEC7
:1019760080F010EE0AF00900F5CFEEFFE550E150D9
:10198600FAE1880EF66E1A0EF76E000EF86E00EE8D
:1019960043F010EE21F00900F5CFEEFFE550E150DF
:1019A600FAE100018F6B8E6B8D6B8C6B8B6B8A6B88
:1019B60000EE01F0420EEE6AE806FDE17B907B92B6
:1019C6000001F1EF0BF05AC071F059C072F058C027
:1019D60073F057C074F0710E656E000E666EB9EC4A
:1019E6000AF0720E656E000E666EB9EC0AF0730EA2
:1019F600656E000E666EB9EC0AF06EC0D9FF6FC058
:101A0600DAFF040EDE18D8A40BEF0DF00DEF0DF083
:101A160013EF0DF0740E656E000E666EB9EC0AF0EB
:101A260012005DC070F05CC071F05BC072F0700EA9
:101A3600656E000E666EB9EC0AF0710E656E000EEC
:101A4600666EB9EC0AF0720E656E000E666EB9EC43
:101A56000AF0120065506610D8A434EF0DF036EF88
:101A66000DF038EF0DF042EF0DF067C0C9FF9EA6EE
:101A76003FEF0DF041EF0DF03AEF0DF09E96000EA0
:101A86001200890F8A0F8B0F8C0F8D0F920F930FF9
:101A9600940F950F960F685A622A1A622A0101015D
:031AA60001121218
:101AAA00646EF2906450D8A45DEF0DF05FEF0DF014
:101ABA0061EF0DF061EF0DF01200646EF290645068
:101ACA00D8A46AEF0DF06CEF0DF06EEF0DF06EEF2B
:101ADA000DF01200646EF2906450D8A477EF0DF006
:101AEA0079EF0DF07BEF0DF07BEF0DF01200646ED5
:101AFA00F2906450D8A484EF0DF086EF0DF088EFD1
:101B0A000DF088EF0DF01200A1920A50B36E09C0D1
:101B1A00B2FF12009E901050CF6E0FC0CEFF12007F
:101B2A00F2941450D76E13C0D6FF1200800F810FA3
:101B3A00820F830F840F9E9239C0CCFF12009E96AB
:101B4A001200A1961200F0921200F0901200F29286
:101B5A0012009D981200A19012009E9412009E9C61
:081B6A0012001200120012002B
:020000040020DA
:08000000FFFFFFFFFFFFFFFF00
:020000040030CA
:0E000000FF020912FF8181FF0FC00FE00F40C9
:00000001FF
