:0400000007EF00F016
:0A0008007E820BED08F064EF0DF0AE
:10100000003738392F3435362A3132332D23303DED
:051010002B2569000022
:101016000600F2A811EF08F013EF08F01CEF08F035
:10102600F2A218EF08F01AEF08F01CEF08F034EC03
:101036000EF0F0A621EF08F023EF08F02CEF08F0F1
:10104600F0A028EF08F02AEF08F02CEF08F032ECB9
:101056000EF0F0A831EF08F033EF08F03CEF08F09F
:10106600F0A238EF08F03AEF08F03CEF08F030EC69
:101076000EF0F2A641EF08F043EF08F05EEF08F03D
:10108600F2A048EF08F04AEF08F05EEF08F081A8FA
:101096004FEF08F051EF08F05EEF08F06604D8A4B1
:1010A60057EF08F059EF08F05EEF08F0000E666E95
:1010B600000E04EC0EF0F2A663EF08F065EF08F000
:1010C60080EF08F0F2A06AEF08F06CEF08F080EF0E
:1010D60008F081B871EF08F073EF08F080EF08F0C0
:1010E6006650D8A479EF08F07BEF08F080EF08F09F
:1010F600010E666E010E04EC0EF0F2A685EF08F006
:1011060087EF08F0A2EF08F0F2A08CEF08F08EEF60
:1011160008F0A2EF08F081AA93EF08F095EF08F027
:10112600A2EF08F06504D8A49BEF08F09DEF08F045
:10113600A2EF08F0000E656E000EF7EC0DF0F2A6B9
:10114600A7EF08F0A9EF08F0C4EF08F0F2A0AEEFA1
:1011560008F0B0EF08F0C4EF08F081BAB5EF08F078
:10116600B7EF08F0C4EF08F06550D8A4BDEF08F05B
:10117600BFEF08F0C4EF08F0010E656E010EF7EC44
:101186000DF0F2A6C9EF08F0CBEF08F0E6EF08F095
:10119600F2A0D0EF08F0D2EF08F0E6EF08F081AC4D
:1011A600D7EF08F0D9EF08F0E6EF08F06404D8A40A
:1011B600DFEF08F0E1EF08F0E6EF08F0000E646EEE
:1011C600000EEAEC0DF0F2A6EBEF08F0EDEF08F0FA
:1011D60008EF09F0F2A0F2EF08F0F4EF08F008EFDC
:1011E60009F081BCF9EF08F0FBEF08F008EF09F011
:1011F6006450D8A401EF09F003EF09F008EF09F0F5
:10120600010E646E010EEAEC0DF0F2A60DEF09F088
:101216000FEF09F02AEF09F0F2A014EF09F016EF2C
:1012260009F02AEF09F081AE1BEF09F01DEF09F076
:101236002AEF09F06304D8A423EF09F025EF09F09B
:101246002AEF09F0000E636E000EDDEC0DF0F2A63B
:101256002FEF09F031EF09F04CEF09F0F2A036EF6D
:1012660009F038EF09F04CEF09F081BE3DEF09F0C7
:101276003FEF09F04CEF09F06350D8A445EF09F0B1
:1012860047EF09F04CEF09F0010E636E010EDDEC3D
:101296000DF09DAC51EF09F053EF09F05CEF09F04A
:1012A6009EAC58EF09F05AEF09F05CEF09F03CEC00
:1012B6000EF0F2AA61EF09F063EF09F06CEF09F0A6
:1012C600F2A468EF09F06AEF09F06CEF09F01DEC83
:1012D6000EF09DA071EF09F073EF09F07CEF09F0B5
:1012E6009EA078EF09F07AEF09F07CEF09F017EC91
:1012F6000EF09DA281EF09F083EF09F08CEF09F063
:101306009EA288EF09F08AEF09F08CEF09F028EC2D
:101316000EF0A0A291EF09F093EF09F09CEF09F00F
:10132600A1A298EF09F09AEF09F09CEF09F011ECF1
:101336000EF09DA8A1EF09F0A3EF09F0ACEF09F0BC
:101346009EA8A8EF09F0AAEF09F0ACEF09F036EC79
:101356000EF09DAAB1EF09F0B3EF09F0BCEF09F06A
:101366009EAAB8EF09F0BAEF09F0BCEF09F040EC1D
:101376000EF09DA6C1EF09F0C3EF09F0CCEF09F01E
:101386009EA6C8EF09F0CAEF09F0CCEF09F02CECE5
:101396000EF0A0A6D1EF09F0D3EF09F0DCEF09F0CB
:1013A600A1A6D8EF09F0DAEF09F0DCEF09F02EEC90
:1013B6000EF09DA6E1EF09F0E3EF09F0ECEF09F07E
:1013C6009EA6E8EF09F0EAEF09F0ECEF09F03FEC32
:1013D6000EF09DA4F1EF09F0F3EF09F0FCEF09F030
:1013E6009EA4F8EF09F0FAEF09F0FCEF09F03AECE9
:1013F6000EF0A0A001EF0AF003EF0AF00CEF0AF0DE
:10140600A1A008EF0AF00AEF0AF00CEF0AF038EC98
:101416000EF07E9211007C507D10D8A415EF0AF0D4
:1014260017EF0AF019EF0AF0B9EF0AF0C69A7CC076
:10143600D9FF7DC0DAFFDF5000018A6FC6508A19D6
:10144600F00B8A19C66E7CC0D9FF7DC0DAFFDF506B
:10145600D8B430EF0AF032EF0AF058EF0AF07CC049
:10146600D9FF7DC0DAFFDE04D8B43CEF0AF03EEFC8
:101476000AF058EF0AF07CC0D9FF7DC0DAFF020EF1
:10148600DE18D8B449EF0AF04BEF0AF058EF0AF02D
:101496007CC0D9FF7DC0DAFF030EDE18D8A456EF54
:1014A6000AF058EF0AF060EF0AF07CC075F07DC0D4
:1014B60076F0B2EC0DF080EF0AF07CC0D9FF7DC06B
:1014C600DAFF040EDE18D8B46BEF0AF06DEF0AF0FF
:1014D6007AEF0AF07CC0D9FF7DC0DAFF050EDE1870
:1014E600D8A478EF0AF07AEF0AF080EF0AF07CC011
:1014F60075F07DC076F036EC0DF020EE01F07C50F4
:10150600D9267D50DA22DF50030B00018A6F8A3B11
:10151600C6508A19EF0B8A19C66E20EE01F07C5070
:10152600D9267D50DA22DF30E832030B8A6F8A3300
:101536008A33C7508A197F0B8A19C76E20EE01F0CD
:101546007C50D9267D50DA22DF38030B8A6F8A3B1E
:101556008A478A47C7508A19BF0B8A19C76E7CC04B
:101566006CF07DC06DF03EEC0EF0C68A000E1200E7
:10157600010E746E6C506D10D8B4C4EF0AF0C6EF4D
:101586000AF0D7EF0AF06CC0D9FF6DC0DAFFDF3082
:10159600E832E832070B6E6E070E6E64D5EF0AF07E
:1015A600D7EF0AF03AEF0BF0000E746E5BEF0BF01C
:1015B6006CC0D9FF6DC0DAFFDF30E832E832070BC6
:1015C6006E6E010E6F6E6E2AEBEF0AF0D8906F36D4
:1015D6006E2EE9EF0AF06F50FF0A706E6CC0D9FFED
:1015E6006DC0DAFFDF50070B716E7150020D520E9F
:1015F600F324D96E000EF420DA6EDECF72F0DDCF62
:1016060073F072C0D9FF73C0DAFF7050DF165BEF5C
:101616000BF06CC0D9FF6DC0DAFFDF30E832E8327C
:10162600070B6E6E010E6F6E6E2A1CEF0BF0D890D4
:101636006F366E2E1AEF0BF06CC0D9FF6DC0DAFF55
:10164600DF50070B706E7050020D520EF324D96EE8
:10165600000EF420DA6EDECF71F0DDCF72F071C0CD
:10166600D9FF72C0DAFF6F50DF125BEF0BF06CC070
:10167600D9FF6DC0DAFFDFBC43EF0BF046EF0BF08E
:10168600010E47EF0BF0000E6E6E6F6A6F50000A88
:10169600D8B450EF0BF0D7EF0AF06E50000AD8B46A
:1016A600DBEF0AF0010AD8B40CEF0BF0D7EF0AF023
:1016B60074501200010E756E6C506D10D8B466EF42
:1016C6000BF068EF0BF079EF0BF06CC0D9FF6DC033
:1016D600DAFFDF30E832E832070B6F6E070E6F6411
:1016E60077EF0BF079EF0BF0DCEF0BF0000E756E79
:1016F600F1EF0BF06CC0D9FF6DC0DAFFDF30E832D6
:10170600E832070B6F6E010E706E6F2A8DEF0BF0CD
:10171600D89070366F2E8BEF0BF07050FF0A716EFB
:101726006CC0D9FF6DC0DAFFDF50070B726E7250C6
:10173600020D480EF324D96E000EF420DA6EDECFC9
:1017460073F0DDCF74F073C0D9FF74C0DAFF715047
:10175600DF16F1EF0BF06CC0D9FF6DC0DAFFDF309A
:10176600E832E832070B6F6E010E706E6F2ABEEF1D
:101776000BF0D89070366F2EBCEF0BF06CC0D9FF13
:101786006DC0DAFFDF50070B716E7150020D480E07
:10179600F324D96E000EF420DA6EDECF72F0DDCFC0
:1017A60073F072C0D9FF73C0DAFF7050DF12F1EF29
:1017B6000BF06E506F6E706A7050000AD8B4E6EF88
:1017C6000BF079EF0BF06F50000AD8B47DEF0BF0F9
:1017D600010AD8B4AEEF0BF079EF0BF0755012009A
:1017E600670E7C6E000E7D6E0EEC0AF000018C6FAB
:1017F6006A0E7A6E000E7B6E3FEC0CF000018C6F69
:10180600690E766E000E776E00EC0DF000018C6F9F
:10181600670E6C6E000E6D6E470E6E6E000E6F6E6E
:101826008FEC0DF000018C6F620E4718D8A41EEFE6
:101836000CF020EF0CF02AEF0CF06A0E766E000E1C
:10184600776E80EC0CF000018C6F0BEF0CF0640EE1
:101856004718D8A431EF0CF033EF0CF00BEF0CF077
:101866006A0E766E000E776EC0EC0CF000018C6F7F
:101876000BEF0CF007EF00F0010E00018A6F7A50B3
:101886007B10D8A449EF0CF04BEF0CF04FEF0CF0A7
:10189600000E8A6F7DEF0CF046C08BF07AC0D9FF40
:1018A6007BC0DAFFDF500F0B7C6E8B517C18F80B78
:1018B6007C188B6F7AC0D9FF7BC0DAFFDF38070B45
:1018C6007C6E7C467C467C468B517C18C70B7C180C
:1018D6008B6F8B9D7AC0D9FF7BC0DAFFDFAE02D05B
:1018E6008B8F02D000018B9F8B0E766E000E776E6B
:1018F60000EC0DF000018A511200010E796E76504F
:101906007710D8A489EF0CF08BEF0CF08FEF0CF06A
:10191600000E796EBEEF0CF045C07AF076C0D9FFA6
:1019260077C0DAFFDF500F0B786E7A507818F80B15
:1019360078187A6E76C0D9FF77C0DAFFDF38070BE2
:10194600786E7846784678467A507818C70B7818B5
:101956007A6E7A9C76C0D9FF77C0DAFFDFAE02D006
:101966007A8E01D07A9E7A0E6C6E000E6D6E010E26
:101976006E6E5DEC0BF079501200010E796E7650AA
:101986007710D8A4C9EF0CF0CBEF0CF0CFEF0CF02A
:10199600000E796EFEEF0CF044C07AF076C0D9FFE7
:1019A60077C0DAFFDF500F0B786E7A507818F80B95
:1019B60078187A6E76C0D9FF77C0DAFFDF38070B62
:1019C600786E7846784678467A507818C70B781835
:1019D6007A6E7A9C76C0D9FF77C0DAFFDFAE02D086
:1019E6007A8E01D07A9E7A0E6C6E000E6D6E000EA7
:1019F6006E6E5DEC0BF07950120076507710D8B40D
:101A060007EF0DF009EF0DF01AEF0DF076C0D9FFD4
:101A160077C0DAFFDF30E832E832070B786E070E60
:101A2600786418EF0DF01AEF0DF01EEF0DF0000EB2
:101A3600796E34EF0DF076C06CF077C06DF0BBECCC
:101A46000AF0796E76C06CF077C06DF076C0D9FF7B
:101A560077C0DAFF000EDFBE010E6E6E5DEC0BF096
:101A6600796E795012005FC078F05EC079F05DC083
:101A76007AF05CC07BF0780E6C6E000E6D6EBBEC7F
:101A86000AF0790E6C6E000E6D6EBBEC0AF07A0EE3
:101A96006C6E000E6D6EBBEC0AF075C0D9FF76C099
:101AA600DAFF040EDE18D8A45BEF0DF05DEF0DF043
:101AB60063EF0DF07B0E6C6E000E6D6EBBEC0AF0E4
:101AC6001200460EF66E1C0EF76E000EF86E00EE55
:101AD60080F010EE0AF00900F5CFEEFFE550E15078
:101AE600FAE1960EF66E1B0EF76E000EF86E00EE1D
:101AF60048F010EE23F00900F5CFEEFFE550E15077
:101B0600FAE100EE01F0470EEE6AE806FDE17E908E
:101B16007E920001F3EF0BF06C506D10D8B496EF87
:101B26000DF098EF0DF0A1EF0DF06E506F10D8A4E8
:101B36009FEF0DF0A1EF0DF0A3EF0DF0B0EF0DF05C
:101B4600C7A0A8EF0DF0AAEF0DF0A3EF0DF06EC041
:101B5600D9FF6FC0DAFFC9CFDFFF000E120062C0E7
:101B660077F061C078F060C079F0770E6C6E000E89
:101B76006D6EBBEC0AF0780E6C6E000E6D6EBBECF3
:101B86000AF0790E6C6E000E6D6EBBEC0AF0120058
:101B9600890F8A0F8B0F8C0F8D0F920F930F940F57
:101BA600950F960F685A622A1A622A0101010105E9
:031BB600000A031F
:101BBA006B6EF2906B50D8A4E5EF0DF0E7EF0DF0E5
:101BCA00E9EF0DF0E9EF0DF012006B6EF2906B5039
:101BDA00D8A4F2EF0DF0F4EF0DF0F6EF0DF0F6EFFA
:101BEA000DF012006B6EF2906B50D8A4FFEF0DF05F
:101BFA0001EF0EF003EF0EF003EF0EF012006B6E22
:101C0A00F2906B50D8A40CEF0EF00EEF0EF010EF1E
:101C1A000EF010EF0EF01200A1921050B36E0FC02A
:101C2A00B2FF12009E901650CF6E15C0CEFF120062
:101C3A00F2941A50D76E19C0D6FF1200800F810F86
:101C4A00820F830F840F9E923FC0CCFF12009E9694
:101C5A001200A1961200F0921200F0901200F29275
:101C6A0012009D981200A19012009E9412009E9C50
:081C7A0012001200120012001A
:020000040020DA
:08000000FFFFFFFFFFFFFFFF00
:020000040030CA
:0E000000FF020912FF8181FF0FC00FE00F40C9
:00000001FF
